:100000000C9424020C9468020C9468020C9468020C
:100010000C9468020C9468020C9468020C946802B8
:100020000C9468020C9468020C94420C0C94140D0D
:100030000C9468020C9468020C9468020C94680298
:100040000C9468020C943C210C9468020C94680295
:100050000C9468020C94CB1A0C9468020C946802FD
:100060000C9468020C9468020C9468020C94680268
:100070000C9468020C9468020C9468020C94680258
:100080000C9468020C9468020C9468020C94680248
:100090000C9468020C9468020C9468020C94680238
:1000A0000C9468020C9468020C946802810DA30DF4
:1000B000910EA30D910EE80D0B0E910E600E730EB6
:1000C00076117611A211A211D911F7112D132D134A
:1000D00002122D13B712B7121E132D132D1327134F
:1000E000C412C412C412C412C412C412C412C41260
:1000F000C412C412C412C412C412C412C412C41250
:10010000D512E312EA12F112FB1235002B00E000C7
:10011000E100E20000001E00140004001D00A80021
:100120002F001F001A0016001B00AA002A00200042
:10013000080007000600A9002C0021001500090096
:100140001900AE004B00220017000A000500000055
:10015000AC0029002C040000E3000000AB002900E3
:100160002C080000E70000004A0023001C000B00E0
:10017000110000004D00240018000D001000500078
:100180004E0025000C000E00360051002C00260009
:1001900012000F0037005200280027001300330020
:1001A00038004F0030002E002D813400317235743C
:1001B00000000100010001000100010000003A0000
:1001C000440001000100010001003B004500010066
:1001D0000100010001003C00680001000100010075
:1001E00001003D00690001000100010001003E0026
:1001F0006A00010001000000010001000100000090
:1002000001000000010001000100000001000000E9
:1002100001003F006B0001000100000001004000F0
:100220006C00010001000100010041006D000100AF
:1002300001000100010042006E0001000100010008
:10024000010043006F0001000100010001000100F6
:1002500001000100010001000000160345007200CA
:1002600067006F0044006F007800200045005A00CE
:10027000000016034500720067006F0044006F0025
:100280007800200045005A00000004030904090218
:100290006D00040100A0FA0904000001030101003F
:1002A000092111010001223F000705810308000A0E
:1002B00009040100010301020009211101000122CA
:1002C0004D000705820308000A090402000103002B
:1002D00000000921110100012236000705830308EF
:1002E000000A0904030001030000000921110100B4
:1002F00001223900070584031000011201100100DA
:10030000000008EDFE0713010001020001050109CC
:1003100006A101050719E029E715002501950875D3
:1003200001810205081901290595057501910295BC
:10033000017503910105071900297715002501951D
:100340007875018102C005010980A10185021601AD
:100350000026B7001A01002AB70075109501810028
:10036000C0050C0901A1018503160100269C021A93
:1003700001002A9C02751095018100C00501090247
:10038000A1010901A100050919012905150025018F
:1003900095057501810295017503810105010930FB
:1003A00009311581257F9502750881060938158167
:1003B000257F950175088106050C0A3802158125EF
:1003C0007F950175088106C0C005010906A10105D8
:1003D0000719E029E71500250195087501810295A7
:1003E0000175088101050819012905950575019117
:1003F000029501750391010507190029FF150025D4
:10040000FF950675088100C0000000000000000094
:10041000000000010204060A0F17202C3A4A5D7101
:10042000879DB3C7DAE9F5FCFFFCF5E9DAC7B39DB0
:1004300087715D4A3A2C20170F0A0604020100005A
:10044000000000000000000011241FBECFEFDAE022
:10045000DEBFCDBF04B603FE24C08091EF019091B2
:10046000F001A091F101B091F2018730904BA740CB
:10047000B04BB9F41092EF011092F0011092F1011B
:100480001092F20114BE84B7877F84BF88E10FB653
:10049000F89480936000109260000FBEE0E0FFE3EC
:1004A000099511E0A0E0B1E0E6E0F6E402C00590B5
:1004B0000D92A433B107D9F711E0A4E3B1E001C074
:1004C0001D92AF3EB107E1F70E9486090C9401230B
:1004D0000C94000061110BC0FC018281882321F083
:1004E00085EE0E94F30F03C085EE0E94BB1080E0F2
:1004F00090E0089508956091B1017091B2018091EA
:10050000B3019091B4010E94F71956985E9825980E
:100510002D9826982E9827982F98813019F08230A0
:1005200021F00895259A2D9A0895269A2E9A0895D5
:100530000C947B0256985E9825982D9826982E98B4
:1005400027982F988FEF90E09093890080938800F0
:1005500090938B0080938A0090938D0080938C0001
:10056000259A2D9A2FEF80E792E02150804090400D
:10057000E1F700C00000269A2E9A2FEF80E792E064
:10058000215080409040E1F700C00000279A2F9A48
:100590002FEF80E792E0215080409040E1F700C0CB
:1005A000000025982D982FEF80E792E021508040A1
:1005B0009040E1F700C0000026982E982FEF80E7CA
:1005C00092E0215080409040E1F700C00000279861
:1005D0002F9856985E9825982D9826982E982798AB
:1005E0002F98089589EA8093800089E080938100A4
:1005F00024982C983F988AB18F748AB96E98479A3C
:100600008BB1806B8BB9769A0E949A020C947A0215
:1006100080E2809300018091340181110EC00E941C
:10062000570381E0809334012FEF83ED90E3215055
:1006300080409040E1F700C0000080E40E945D032C
:100640008093000181112EC00E94870380930001D6
:10065000811128C00E94870380930001811122C06C
:100660008FE30E9487038093000181111BC00E94C9
:100670007F0380E40E945D0380930001811112C01A
:100680008CE00E9487038093000181110BC00E94BF
:10069000870380930001811105C08FE30E948703C7
:1006A000809300010E947F038091000108951092C1
:1006B000B9008AE08093B800089594EA9093BC0052
:1006C0009091BC0097FFFCCF9091B900987F983033
:1006D00021F0903111F081E008958093BB0084E80F
:1006E0008093BC008091BC0087FFFCCF8091B90053
:1006F000887F883111F0803471F780E0089584E9B3
:100700008093BC008091BC0084FDFCCF0895809351
:10071000BB0084E88093BC008091BC0087FFFCCFC5
:100720009091B900987F81E0983209F480E00895B3
:1007300084E88093BC008091BC0087FFFCCF80914F
:10074000BB00089580910001811115C080E40E94D2
:100750005D038093000181110CC082E10E94870338
:1007600080930001811105C08FEF0E948703809361
:1007700000010E947F0384B1807F84B985B1807FAE
:1007800085B98AB1837F8AB98BB1837F8BB93E9853
:10079000469808950E940803809300010E94A203D6
:1007A00080B38C7080BB81B3836F81BBA6E3B1E063
:1007B000E4E4F1E08EE08E0F11921D928E13FCCFD7
:1007C0000C94F202BF92CF92DF92EF92FF920F93BE
:1007D0001F93CF93DF9380910001882379F080915C
:1007E00035018F5F80933501811108C00E94080395
:1007F00080930001811102C00E949A0206E311E079
:10080000C0E0D0E0DD24D39482E0C82EEE24E3944F
:10081000F12CC730D10500F580910001811164C031
:1008200080E40E945D0380930001811112C082E187
:100830000E9487038093000181110BC0C7010C2E19
:1008400001C0880F0A94EAF780950E94870380937D
:1008500000010E947F0348C0CA30A1F028F4C830CC
:1008600059F0C93061F005C0CC3089F070F0CD305E
:1008700089F0209A289810C0219A29980DC0229AB0
:100880002A980AC0239A2B9807C0529A01C0539AFB
:100890005B9802C03E9A469890EA9A95F1F79FB10C
:1008A000799902C082E001C080E091709D25982B6B
:1008B0007C9902C084E001C080E0892B7D9902C050
:1008C00038E001C030E0832B7E9902C020E101C0F6
:1008D00020E0822B9FB19095991F9927991F92959F
:1008E000990F907E892B0FC080910001811149C022
:1008F00080E40E945D0380930001882379F1B12C8C
:100900000E947F038B2DF8019081981719F0808346
:10091000C09201010E94A20321960F5F1F4FCE30AB
:10092000D10509F076CF80910101882361F18150D2
:1009300080930101882339F08FE99FE00197F1F757
:1009400000C0000020C0A4E4B1E0E6E3F1E0CF0184
:10095000825F91919D938E13FCCF15C083E10E941D
:100960008703809300018111CACF81E40E945D0357
:10097000809300018111C3CF0E949803B82EB094D8
:10098000BFCF80E0C0CF0E94980281E0DF91CF917D
:100990001F910F91FF90EF90DF90CF90BF9008953F
:1009A000E82FF0E0EC5BFE4F8081089508950895F4
:1009B00096E0799FF001112494E5899FE00DF11DE7
:1009C0001124E60FF11DEE0FFF1FE65FFE4F85912C
:1009D00094910895880F991FFC01E657F040859186
:1009E00094910895880F991FFC01E65FFE4F859151
:1009F000949108950F931F93CF93DF93EC0181158A
:100A0000904350F5C11580E2D80708F0B3C0CB3B46
:100A1000D10590F4C83AD10508F05AC0C53AD105BD
:100A200008F04BC0C430D10508F0CCC1219709F0C3
:100A3000C6C101E010E006C2CF3FD10511F008F0B9
:100A4000C1C1C03FD10508F092C0CE01805E9109BE
:100A5000089708F4B7C1B3C1C11591E5D907A8F447
:100A6000C23020E5D20708F09EC0C11580E5D80746
:100A700009F485C008F091C0C11520E4D20708F040
:100A80009EC1DD278E01106CDDC1C11580E8D8073D
:100A900058F4C11590E7D90708F08DC1C11520E6BB
:100AA000D20708F422C18BC1C11580E9D80708F02C
:100AB00086C1DF708E01106AC5C1C53AD10509F43F
:100AC00083C1C63AD10509F082C102E810E4BAC177
:100AD000C83AD10509F47EC1C93AD10509F47DC1EE
:100AE000CA3AD10509F47CC1CB3AD10509F47BC1DE
:100AF000CC3AD10509F47AC1CD3AD10509F479C1CE
:100B0000C03BD10509F478C1CE3AD10509F477C1CB
:100B1000CF3AD10509F476C1C13BD10509F475C1BD
:100B2000C23BD10509F474C1C33BD10509F473C1BB
:100B3000C43BD10509F472C1C53BD10509F471C1AB
:100B4000C63BD10509F470C1C73BD10509F46FC19B
:100B5000C83BD10509F46EC1C93BD10509F46DC18B
:100B6000CA3BD10509F46CC100E014E46BC18E01ED
:100B7000106568C1CE019F700E94F20464C10E949A
:100B800083139FEF24E38CE0915020408040E1F7F5
:100B900000C000000E94F01A55C18091CE01816012
:100BA0008093CE014FC10E94991C811102C00E9406
:100BB0007F1C0E94B61C90E09093EF018093EE01A1
:100BC000C23090E5D90721F48091EE01816086C0A2
:100BD000C43020E5D20721F48091EE0182607EC00E
:100BE000C63080E5D80721F48091EE01846076C09C
:100BF000C83090E5D90719F48091EE0127C0CA30BA
:100C000020E5D20721F48091EE01806167C0CC30ED
:100C100080E5D80721F48091EE0180625FC0CE307C
:100C200090E5D90721F48091EE01806457C0C0316E
:100C300020E5D20721F48091EE0180684FC0C231D7
:100C400080E5D80729F48091EE018460886046C071
:100C5000C33090E5D90721F48091EE018E7F3EC02C
:100C6000C53020E5D20721F48091EE018D7F36C09A
:100C7000C73080E5D80721F48091EE018B7F2EC02C
:100C8000C93090E5D90719F48091EE0126C0CB3028
:100C900020E5D20721F48091EE018F7E1FC0CD3078
:100CA00080E5D80721F48091EE018F7D17C0CF3009
:100CB00090E5D90721F48091EE018F7B0FC0C131FF
:100CC00020E5D20721F48091EE018F7707C0C33170
:100CD000D04531F48091EE018B7F877F8093EE01C8
:100CE0008091EE010E94BA1CADC08D2F99278F70A4
:100CF000992781309105D9F49E012370332702C0D2
:100D0000880F991F2A95E2F79C688E0144E0000F36
:100D1000111F4A95E1F700271370802B912B53E0A8
:100D2000CC0FDD1F5A95E1F7C076DD272FC082304A
:100D3000910531F4DC2FCC278E01016F106A82C03F
:100D40008330910569F4CE018370992701E010E0AA
:100D500002C0000F111F8A95E2F7C8019C680FC0FE
:100D600084309105B9F4CE018370992701E010E039
:100D700002C0000F111F8A95E2F7C8019A6823E0AC
:100D8000CC0FDD1F2A95E1F7C07ED7708C010C2BAC
:100D90001D2B58C08530910531F4DC2FCC278E01F6
:100DA000046F106A4FC0069709F04CC0CF71DD2761
:100DB000DC2FCC2701C0DF708E01106243C000E041
:100DC00010E040C08E013EC001E810E43BC003E8E3
:100DD00010E438C002EE14E435C009EE14E432C069
:100DE0000AEE14E42FC005EB14E42CC006EB14E467
:100DF00029C007EB14E426C00CEC14E423C00DEC6E
:100E000014E420C003E815E41DC00AE815E41AC084
:100E100002E915E417C004E915E414C001E216E480
:100E200011C003E216E40EC004E216E40BC005E2B2
:100E300016E408C006E216E405C007E216E402C0A4
:100E40000AE216E4C801DF91CF911F910F91089536
:100E500096E0799FF001112494E5899FE00DF11D42
:100E60001124E60FF11DEE0FFF1FE65FFE4F859187
:100E70009491803E9105E0F4803C910558F58133D2
:100E8000910509F46FC048F48932910509F463C0F3
:100E90008A32910509F46DC072C089339105E9F079
:100EA00082389105D1F08533910509F44DC067C0B2
:100EB000833E910581F138F4803E9105B9F0823E80
:100EC0009105D9F05CC0863E910561F1873E9105A0
:100ED000A1F155C00E94EA0408952091EE0120FD81
:100EE00002C021FF4CC080EE90E049C08091EE012D
:100EF00080FFF9CF89E390E042C08091EE0182FF4C
:100F00000EC08091EE0184FF03C080E090E037C006
:100F100083EE90E034C08091EE0182FFF2CF82EE4A
:100F200090E02DC08091EE0183FF0BC08091EE0117
:100F300084FDEBCF87EE90E022C08091EE0183FF2D
:100F4000F5CF86EE90E01BC08091EE0185FF07C0D3
:100F500089E290E014C08091EE0185FFF9CF85E32E
:100F600090E00DC08091EE0186FF07C08AE290E01C
:100F700006C08091EE0186FFF9CF81E390E00E94E8
:100F8000FA04089508950C94C207809162010895AF
:100F9000CF93DF9300D01F92CDB7DEB79C01809135
:100FA000E501843019F593E099833B832A8390937C
:100FB000E9008FEF9091E800815095FD06C095ED16
:100FC0009A95F1F700008111F5CF8091E80085FF37
:100FD0000DC040E050E063E070E0CE0101960E9459
:100FE000320A8091E8008E778093E8000F900F908E
:100FF0000F90DF91CF910895CF93DF9300D01F9290
:10100000CDB7DEB72091E501243021F522E0298318
:101010009B838A8383E08093E9008FEF9091E800BF
:10102000815095FD06C095ED9A95F1F7000081116C
:10103000F5CF8091E80085FF0DC040E050E063E00F
:1010400070E0CE0101960E94320A8091E8008E770E
:101050008093E8000F900F900F90DF91CF9108954B
:101060002091E5012430F1F422E02093E9002FEFF4
:101070003091E800215035FD06C035ED3A95F1F785
:1010800000002111F5CF2091E80025FF0BC040E0C2
:1010900050E065E070E00E94320A8091E8008E77AF
:1010A0008093E8000895CF93DF93EC019091E501E0
:1010B000943009F046C080910C018823D9F08091CA
:1010C0000D018823B9F09093E9008FEF9091E8002B
:1010D000815095FD06C095E19A95F1F700008111C8
:1010E000F5CF8091E80085FF2CC040E050E060E142
:1010F00070E017C081E08093E9008FEF9091E800E5
:10110000815095FD06C095ED9A95F1F7000081118B
:10111000F5CF8091E80085FF14C040E050E068E022
:1011200070E0CE010E94320A8091E8008E778093B1
:10113000E80080E1FE01A2E5B1E001900D928A9500
:10114000E1F7DF91CF9108958091E401811109C009
:101150000E94C70B0E94240C8091E200846080935F
:10116000E20008951092E401089508950C94292155
:101170000E94861A0E942F210E94CA0E0C94C30757
:1011800042E061EC81E00E94410B42E061EC82E0D0
:101190000E94410B42E061EC83E00E94410B42E17E
:1011A00061EC84E00C94410B8091E701833009F4F9
:1011B00055C030F4813071F0823009F48EC008954A
:1011C0008A3009F47AC08B3009F460C0893009F0A4
:1011D0009CC020C08091E601813A09F096C08091C0
:1011E000E800877F8093E8008091EA019091EB010D
:1011F000892B21F460E182E591E003C060E080E0AA
:1012000090E070E00E947D0A8091E8008B778093E7
:10121000E80008958091E601813209F076C080915E
:10122000EA019091EB01009719F0039709F06DC066
:101230008091E800877F8093E8008091E80082FD3C
:1012400005C08091E5018111F8CF5FC08091F10068
:10125000809362018091E8008B7753C08091E60112
:10126000813A09F052C08091EA019091EB01892BFB
:1012700009F04BC08091E800877F8093E80080915F
:10128000E80080FFFCCF80910C0136C08091E60120
:101290008132D9F58091EA019091EB01892BA9F572
:1012A0008091E800877F8093E8000E94760B809110
:1012B000E80180930C010C9483138091E601813244
:1012C00021F58091E800877F8093E8000E94760BEB
:1012D0008091E9018093630108958091E601813A4C
:1012E000A1F48091E800877F8093E8008091E80076
:1012F00080FFFCCF809163018093F1008091E80032
:101300008E778093E8000C94760B089584B7877FDE
:1013100084BF88E10FB6F89480936000109260005B
:101320000FBE90E080E80FB6F89480936100909330
:1013300061000FBE0E94190F0E94C70B0E94240C6F
:101340008091E20084608093E20078940E94AA0E6B
:101350000E941B0F82E091E00E94C50E0E9417219F
:101360008091E501853069F40E94471A8091E3017C
:101370008823B1F30E94721A882391F30E941C0AF9
:10138000EFCF0E94210FECCF292F332723303105D7
:10139000C9F064F42130310581F02230310509F0C3
:1013A00043C08DE690E02EE832E042C021323105A4
:1013B000F1F02232310541F137C082E190E02BEFAC
:1013C00032E036C099278130910541F08230910595
:1013D00041F0892B49F5EAE8F2E005C0E2E7F2E0E6
:1013E00002C0EAE5F2E0849190E09F0121C0643000
:1013F000D8F4E62FF0E0EE0FFF1FEE5DFE4F2081E8
:10140000318189E090E014C0643070F470E0FB0139
:10141000EE0FFF1FE65EFE4F20813181FB01EA5E89
:10142000FE4F808190E004C080E090E020E030E05A
:10143000FA0131832083089580E189BD82E189BD6D
:1014400009B400FEFDCF8091D8008F7D8093D80035
:101450008091E00082608093E0008091E00081FD57
:10146000FCCF0895CF92DF92EF92FF920F931F93DC
:10147000CF93DF93EC018B016A010E94950B8111E0
:1014800033C0C114D10439F0F60180819181081B69
:10149000190BC80FD91FE12CF12C0115110519F1F9
:1014A0008091E80085FD16C08091E8008E778093DA
:1014B000E800C114D10449F0F60180819181E80E61
:1014C000F91EF182E08285E00FC00E94950B88230F
:1014D00021F30AC089918093F10001501109FFEFB7
:1014E000EF1AFF0ADACF80E0DF91CF911F910F91C1
:1014F000FF90EF90DF90CF9008952091EC01309114
:10150000ED012617370748F06115710539F4209170
:10151000E8002E772093E80001C0B90140E0611592
:101520007105A9F12091E501222309F443C025307A
:1015300009F442C02091E80023FD40C02091E8005A
:1015400022FD32C02091E80020FFE9CF4091F30056
:101550002091F20030E0342BFC01CF0161157105C0
:1015600059F02830310540F481918093F1006150A9
:1015700071092F5F3F4FF1CF41E02830310509F06D
:1015800040E02091E8002E772093E800C8CF411179
:10159000C9CF0AC08091E501882361F0853061F0F0
:1015A0008091E80083FD0AC08091E80082FFF2CFBD
:1015B00080E0089582E0089583E0089581E0089531
:1015C0002091EC013091ED012617370748F06115A5
:1015D000710539F42091E8002E772093E80001C0CE
:1015E000B901FC0120E06115710591F18091E501DF
:1015F000882309F440C0853009F43FC08091E80099
:1016000083FD3DC08091E80082FD2FC08091E800FD
:1016100080FFE9CF2091F3008091F20090E0922BBF
:101620006115710559F08830910540F4249120939B
:10163000F1003196615071090196F2CF21E00897CF
:1016400009F020E08091E8008E778093E800CBCF0E
:101650002111CCCF0AC08091E501882361F085304B
:1016600061F08091E80083FD0AC08091E80082FF6C
:10167000F2CF80E0089582E0089583E0089581E04C
:101680000895982F973058F59093E900981739F0FE
:101690007091EC002091ED005091F00003C0242FD8
:1016A000762F50E021FF19C03091EB003E7F309340
:1016B000EB003091ED003D7F3093ED003091EB0079
:1016C00031603093EB007093EC002093ED00509369
:1016D000F0002091EE0027FF07C09F5FD3CF8F70EF
:1016E0008093E90081E0089580E008958091E6010B
:1016F00087FF11C08091E80082FD05C08091E5015F
:101700008111F8CF11C08091E8008B770BC08091D8
:10171000E501882349F08091E80080FFF8CF8091AF
:10172000E8008E778093E80008952091E4003091DE
:10173000E50095E64091EC00842F817040FF22C0C7
:101740008091E80080FD1CC08091E501882391F024
:10175000853091F08091EB0085FD10C04091E40050
:101760005091E5004217530729F39A01915011F760
:1017700084E0089582E0089583E0089581E008956B
:1017800080E008954091E80042FFDECF08950E9476
:10179000350C0E943D0CE0EEF0E08081816080839A
:1017A000E8EDF0E080818F77808319BCA7EDB0E091
:1017B0008C918E7F8C9380818F7E80831092E40148
:1017C00008950F931F93CF93DF930E94350C0E94CF
:1017D0003D0CC8EDD0E088818F7788838881806850
:1017E000888388818F7D888319BC1092E5011092CF
:1017F000E1011092E3011092E20100EE10E0F80125
:1018000080818B7F808388818160888342E060E073
:1018100080E00E94410BE1EEF0E080818E7F8083CA
:10182000E2EEF0E080818160808380818860808347
:10183000F80180818E7F8083888180618883DF9139
:10184000CF911F910F910895E8EDF0E080818F7E98
:101850008083E7EDF0E080818160808384E082BF57
:1018600081E08093E4010C94E10BE8EDF0E08081ED
:101870008E7F80831092E20008951092DA00109219
:10188000E10008951F920F920FB60F9211242F932B
:101890003F934F935F936F937F938F939F93AF93F8
:1018A000BF93EF93FF938091E10082FF0BC0809183
:1018B000E20082FF07C08091E1008B7F8093E1000E
:1018C0000E94A90E8091DA0080FF1FC08091D8008D
:1018D00080FF1BC08091DA008E7F8093DA008091B8
:1018E000D90080FF0DC080E189BD82E189BD09B4C6
:1018F00000FEFDCF81E08093E5010E94A40805C0B1
:1019000019BC1092E5010E94B2088091E10080FFAD
:1019100019C08091E20080FF15C08091E2008E7FA7
:101920008093E2008091E20080618093E2008091E8
:10193000D80080628093D80019BC85E08093E501CF
:101940000E94B6088091E10084FF30C08091E200DF
:1019500084FF2CC080E189BD82E189BD09B400FE0D
:10196000FDCF8091D8008F7D8093D8008091E100D9
:101970008F7E8093E1008091E2008F7E8093E20071
:101980008091E20081608093E2008091E1018823F0
:1019900011F084E007C08091E30087FD02C081E080
:1019A00001C083E08093E5010E94B8088091E100C6
:1019B00083FF29C08091E20083FF25C08091E10070
:1019C000877F8093E10082E08093E5011092E1013E
:1019D0008091E1008E7F8093E1008091E2008E7F14
:1019E0008093E2008091E20080618093E20042E017
:1019F00060E080E00E94410B8091F000886080935D
:101A0000F0000E94B508FF91EF91BF91AF919F91B7
:101A10008F917F916F915F914F913F912F910F9097
:101A20000FBE0F901F9018951F920F920FB60F9236
:101A300011242F933F934F935F936F937F938F93D3
:101A40009F93AF93BF93CF93DF93EF93FF93C09197
:101A5000E900CF708091EC00D82FD17080FDD0E8E4
:101A60001092E9008091F000877F8093F0007894D5
:101A70000E94580D1092E9008091F00088608093D8
:101A8000F000CD2BCF70C093E900FF91EF91DF9173
:101A9000CF91BF91AF919F918F917F916F915F9106
:101AA0004F913F912F910F900FBE0F901F9018955F
:101AB0001F93CF93DF93CDB7DEB7AA970FB6F894F5
:101AC000DEBF0FBECDBFE6EEF1E088E08E0F909155
:101AD000F10091938E13FBCF0E94D4088091E8000F
:101AE00083FF1FC18091E6019091E701492F50E0EB
:101AF0004A30510508F015C1FA01EA5AFF4F0C941B
:101B0000B122803881F0823809F00BC18091EA015E
:101B10008F708093E9008091EB0085FB882780F926
:101B20001092E90006C08091E2019091E3019111C9
:101B300082609091E800977F9093E8008093F10095
:101B40001092F100C8C0282F2D7F09F0EAC0882329
:101B500019F0823061F0E5C08091E801813009F030
:101B6000E0C0933009F080E08093E3012BC08091C6
:101B7000E801811127C08091EA018F7009F4D1C07A
:101B80008093E9002091EB0020FF1CC0933021F4EA
:101B90008091EB00806214C09091EB009061909373
:101BA000EB0021E030E0A90102C0440F551F8A95E7
:101BB000E2F74093EA001092EA008091EB0088601F
:101BC0008093EB001092E9008091E800877F86C047
:101BD0008111A7C01091E8011F778091E300807800
:101BE000812B8093E3008091E800877F8093E80059
:101BF0000E94760B8091E80080FFFCCF8091E3008B
:101C000080688093E300111102C082E001C083E08C
:101C10008093E50186C08058823008F082C08091B0
:101C2000E8019091E9018C3D53E0950779F583E057
:101C30008A838AE289834FB7F894DE01139620E005
:101C40003EE051E2E32FF0E050935700E49120FF93
:101C500003C0E295EF703F5FEF708E2F90E0EA30A7
:101C600010F0C79601C0C0968D939D932F5F2431CD
:101C700049F74FBF8091E800877F8093E8006AE2D0
:101C800070E0CE0101960E947D0A14C0AE014F5F44
:101C90005F4F6091EA010E94C409BC01892B09F4DD
:101CA00040C09091E800977F9093E80089819A81E5
:101CB0000E94E00A8091E8008B778093E80031C0B1
:101CC000803879F58091E800877F8093E8008091E3
:101CD000E1018093F1008091E8008E778093E80025
:101CE0000E94760B1EC081111CC09091E8019230B9
:101CF000C0F48091E800877F8093E8009093E10131
:101D00000E94760B8091E101811106C08091E30071
:101D100087FD02C081E001C084E08093E5010E945C
:101D2000C0088091E80083FF0AC08091E800877FA7
:101D30008093E8008091EB0080628093EB00AA968C
:101D40000FB6F894DEBF0FBECDBFDF91CF911F91CC
:101D500008950895CF938091E5018823A1F0C09163
:101D6000E900CF709091EC00892F817090FD80E8A0
:101D7000C82B1092E9008091E80083FD0E94580D65
:101D8000CF70C093E900CF9108959093690180933B
:101D900068010895E0916801F0916901309721F0A0
:101DA0000190F081E02D099480E00895E0916801B0
:101DB000F0916901309721F00280F381E02D0994C0
:101DC0000895E0916801F0916901309721F0048055
:101DD000F581E02D09940895209166013091670105
:101DE0008217930771F09093670180936601E091E9
:101DF0006801F0916901309721F00680F781E02DAC
:101E00000994089520916401309165018217930728
:101E100071F09093650180936401E0916801F09105
:101E20006901309721F00084F185E02D099408952F
:101E300008950C94180F0E948C1A0E94CA030C94E7
:101E4000521BCF92DF92EF92FF920F931F93CF938B
:101E5000DF93CDB7DEB72B970FB6F894DEBF0FBE7A
:101E6000CDBF0E94E2038BE6C82E81E0D82E00E0B1
:101E700010E0E02E802F0E94D004F60141916F0106
:101E8000F42EF826B1F40F5F1F4F0E30110589F7BD
:101E90008FEF89838A831B820E94951A8160782F35
:101EA0009D838C8349815A816B818D810E94C40FEF
:101EB00040C09091CE0191FF04C08B870E94D60450
:101EC0008B8520E030E04F2D50E0922FBA01022E9A
:101ED00002C0759567950A94E2F760FF24C02E83CF
:101EE000EF8221E030E0690102C0CC0CDD1C9A9544
:101EF000E2F790E08C219D21892B09F420E02887CE
:101F00000E94951A8160782F9A8789874E815F8118
:101F100068858A850E94C40FF801E559FE4F8081CB
:101F2000C826C08206C02F5F3F4F2630310569F6B4
:101F3000AACF0E94391E10916A010E94CA0E18177A
:101F4000A1F00E94CA0E80936A012B960FB6F894F6
:101F5000DEBF0FBECDBFDF91CF911F910F91FF90DC
:101F6000EF90DF90CF900C94C3072B960FB6F894A8
:101F7000DEBF0FBECDBFDF91CF911F910F91FF90BC
:101F8000EF90DF90CF900895CF93DF93CDB7DEB77A
:101F90002B970FB6F894DEBF0FBECDBF4F83588787
:101FA00069877A878B87DE01119686E0FD011192A1
:101FB0008A95E9F785E0FE01379601900D928A95A2
:101FC000E1F749815A816B817C818D819E810E94DC
:101FD00021162B960FB6F894DEBF0FBECDBFDF9152
:101FE000CF9108950895CF93882309F4C2C0C82FD4
:101FF000823859F40E94CA0E81FDBBC089E30E9459
:10200000FB180E94C81989E30CC0833879F40E9438
:10201000CA0E80FDAEC083E50E94FB180E94C8195D
:1020200083E50E943D19CF910C94C819843859F466
:102030000E94CA0E82FD9DC087E40E94FB180E9488
:10204000C81987E4EECF8CEF8C0F813A48F48C2FBF
:102050000E947C2081118DC08C2F0E94FB18E3CF41
:1020600080E28C0F883048F4C77081E001C0880F8F
:10207000CA95EAF70E948119D6CF8BE58C0F833081
:1020800078F4C53A29F0C63A31F083E890E005C00B
:1020900081E890E002C082E890E0CF910C94EC0ED1
:1020A00088E58C0F833108F064C0C83A39F1C93A29
:1020B00041F1CA3A49F1CB3A51F1CC3A59F1CD3A12
:1020C00061F1C03B69F1CE3A71F1CF3A79F1C13B90
:1020D00081F1C23B89F1C33B91F1C43B99F1C53B0E
:1020E000A1F1C63BA9F1C73BB1F1C83BB9F1C93B6E
:1020F000C1F1CA3BC9F180E090E038C082EE90E0C7
:1021000035C089EE90E032C08AEE90E02FC085EBBA
:1021100090E02CC086EB90E029C087EB90E026C0D1
:102120008CEC90E023C08DEC90E020C083E891E03F
:102130001DC08AE891E01AC082E991E017C084E9E5
:1021400091E014C081E292E011C083E292E00EC0FF
:1021500084E292E00BC085E292E008C086E292E061
:1021600005C087E292E002C08AE292E0CF910C942F
:10217000020FCF910895882309F44BC0823859F497
:102180000E94CA0E81FF45C089E30E94FB180E948D
:10219000C81989E30CC0833871F40E94CA0E80FF0D
:1021A00038C083E50E94FB180E94C81983E50E948D
:1021B0003D190C94C819843859F40E94CA0E82FF44
:1021C00028C087E40E94FB180E94C81987E4EFCF5B
:1021D0009CEF980F913A58F390E2980F983050F492
:1021E000877091E001C0990F8A95EAF7892F0E94C4
:1021F0008719DFCF9BE5980F933020F480E090E0C3
:102200000C94EC0E885A833120F480E090E00C941A
:10221000020F0895882321F00E9481190C94C81997
:102220000895882321F00E9487190C94C8190895F5
:102230002F923F924F925F927F928F929F92AF9296
:10224000BF92CF92DF92EF92FF920F931F93CF93A3
:10225000DF9300D000D000D0CDB7DEB725E0FC0181
:10226000DE01119601900D922A95E1F7FC010081A3
:102270001181F280E580E2943FE0E3222381348102
:10228000232B09F414C21F3F19F40F3F09F40FC2A6
:102290006C010E94F20F09831A8369817A818F2D64
:1022A0000E94C6188C010E947B180E944217F110F0
:1022B0000E949E190E94F418882379F0FF2069F08B
:1022C00080E2800F883048F082E00E94DD180E9492
:1022D000F41891E0782E792601C0712CE12FE29557
:1022E000EF70F0E0E05AFF4F0C94B122812F807F15
:1022F0001F70882311F01295107FFF2089F01123A1
:1023000009F492C180E2800F883020F4812F0E946E
:10231000811903C0812F0E9491190E94C81984C19C
:10232000802F0E94BB10112309F497C1005E812FFA
:10233000083018F40E94871902C00E9497190E9461
:10234000C8198BC1912F907F812F8F70903211F01F
:102350008295807F002319F00130B9F020C0FF2062
:1023600049F0EE2009F418C1F1E0EF1215C10E9406
:10237000B11973C1EE2021F021E0E21609F46DC11C
:102380008E830E94B4198E810DC1FF2029F031E0A7
:102390003E1508F462C100C1E1105FC103C1FF2016
:1023A00021F0EE2009F4F8C03FC1EE2009F4FAC094
:1023B00041C1812F86958695837090E0009719F032
:1023C000019759F04AC1FF2019F0C801937002C06B
:1023D00080E090E00E94EC0E40C1FF2019F0C8019F
:1023E000937002C080E090E00E94020F36C1802FFF
:1023F000FF2019F00E94411D02C00E94A91D0E94E9
:102400002E1E2BC1812F837009F055C0F11025C1FC
:10241000802F829586958770880F880F902F9F70E8
:10242000492F50E060E070E01A012B01082E04C033
:10243000220C331C441C551C0A94D2F704FF15C00F
:102440002FE0822E912CA12CB12CA501940104C067
:10245000220F331F441F551F8A95D2F7CA01B901B5
:10246000609570958095909503C060E070E0CB0119
:10247000169516951370412F50E04230510569F0C2
:102480004330510589F06229732984299529413007
:10249000510571F00E946917E0C0622973298429EF
:1024A00095290E948517D9C00E946917C201B10100
:1024B0000E944D17D2C0FF2019F0812F817001C0FA
:1024C0008695882309F4C9C0802F829586958770E8
:1024D000880F880F902F9F70492F50E060E070E0C8
:1024E0001A012B01082E04C0220C331C441C551C5D
:1024F0000A94D2F704FF15C09FE0892E912CA12CDD
:10250000B12CA501940104C0220F331F441F551F95
:102510008A95D2F7CA01B90160957095809590951A
:1025200003C060E070E0CB01169516951370412F43
:1025300050E04230510569F04330510589F062297D
:102540007329842995294130510571F00E9443185F
:1025500084C062297329842995290E945F187DC04F
:102560000E944318C201B1010E94271876C0802F33
:1025700090E0FC01E05EF109E531F10508F050C0A2
:10258000E059FF4F0C94B1220F70812F8F71FF2003
:1025900031F00E94C017802F0E940A115EC00E9475
:1025A000E117802F0E94111158C0FF2039F0E1106F
:1025B00054C0812F8F710E9406184FC031E03E1524
:1025C00008F44BC0F6CFFF2039F0812F8F710E94A5
:1025D000C01743C0FF20C9F3812F8F710E94E117FC
:1025E0003CC0FF2029F0812F8F710E94AB1735C0AE
:1025F0000E94A11732C0FF2049F01F71812F0E9455
:10260000C01763E0812F0E94D41827C081E00E9488
:10261000DD1841E04E1508F582E00E94DD181DC06E
:10262000FF2031F0EE2089F2802F0E94F30F15C0B9
:10263000EE2091F2802F0E94BB100FC0412F4F70EF
:10264000602FC6010E946A020E94C51606C0412F73
:102650004F70602FC6010E94D704772041F10E947D
:10266000D01880FD24C0F60112820E94CA180E9470
:10267000C017C6010E9418110E94CA1826960FB6EC
:10268000F894DEBF0FBECDBFDF91CF911F910F91A8
:10269000FF90EF90DF90CF90BF90AF909F908F9082
:1026A0007F905F904F903F902F900C94E11726966B
:1026B0000FB6F894DEBF0FBECDBFDF91CF911F9153
:1026C0000F91FF90EF90DF90CF90BF90AF909F90D1
:1026D0008F907F905F904F903F902F9008950E9431
:1026E0009E190E94AE190E9473190E94C8190E9477
:1026F000DF1E0E942E1E80E090E00E94EC0E80E023
:1027000090E00C94020F0E948E190C946F130E949B
:10271000BB18292F22952F7030E02C3031054CF456
:102720002A3031056CF42250310922303105A8F4E9
:1027300007C02C30310569F02F30310551F00DC044
:10274000803F69F018F4803E40F409C0843F29F4CA
:1027500006C093FB882780F9089580E0089581E002
:102760000895CF93DF9300D000D01F92CDB7DEB78E
:102770000F900F900F900F900F90DF91CF910895D1
:10278000CF93DF9300D000D000D0CDB7DEB7269630
:102790000FB6F894DEBF0FBECDBFDF91CF91089585
:1027A0001F93CF93DF93C091790116E080917A0156
:1027B000C81799F0D0E01C9FF0011D9FF00D112467
:1027C000E558FE4F408151816281738184819581FA
:1027D0000E94C0132196C770E9CFDF91CF911F915E
:1027E00008954091AB015091AC016091AD017091A1
:1027F000AE018091AF019091B0010C94C013809113
:10280000B00182958F7009F054C08091AD0188238A
:1028100009F44FC080917901A0917A016091AB01D8
:102820007091AC014091AE015091AF01B6E08A17B2
:1028300009F43FC090E041155105C1F17F3F11F40B
:102840006F3FA1F1B89FF001B99FF00D1124E55839
:10285000FE4F218172132AC02081621327C022817A
:10286000211124C0238134812417350710F421500D
:102870003109241B350B283C3105C0F42091B001EF
:102880002F7020612093B00126E0289FF001299F3E
:10289000F00D1124E058FE4F80818F70806180839D
:1028A0008BEA91E00E9418110C94D0130196877066
:1028B000BECF0895CF92DF92EF92FF920F931F93B6
:1028C000CF93DF93CDB7DEB762970FB6F894DEBF34
:1028D0000FBECDBF8C0185E0F801DE011D96019091
:1028E0000D928A95E1F7D8014C9111965C91119760
:1028F00012966C9112971396CD90DC9014973091AC
:10290000AB017091AC018091AE019091AF01009745
:1029100009F46BC17F3F19F43F3F09F466C1E090B1
:10292000AD01EE2009F4C0C02091B001C816D9064F
:1029300028F0F601E81BF90BCF0104C080959095B3
:102940008C0D9D1DFF24F394883C910578F0F12CAB
:10295000207F09F0C6C07C2DD98AC88A89890E9447
:10296000B1138BEA91E00E941811B1C0822F807FD1
:1029700009F046C0751314C0341312C0611110C0A1
:102980002F7020612093B0010E94F1138BEA91E037
:102990000E9418118091B001D80115968C932EC019
:1029A000CD2819F15F3F11F44F3FF9F0F62E611178
:1029B0001CC08091790120917A0136E0821709F4D8
:1029C0005AC090E0389FF001399FF00D1124E5586E
:1029D000FE4F7181571306C07081471303C0728187
:1029E000711103C001968770E9CFF62E662309F4B2
:1029F00018C18091B00181608093B001F12C11C1A8
:102A0000751308C0341306C0611104C08091B00171
:102A1000D801C3C04D875E878D859E856A8B0E94D5
:102A200087136A898823E1F16623D1F12091B001EF
:102A3000822F82958F7090E0029774F08091AB01A5
:102A40009091AC0198878F831986DB86CA862C8784
:102A5000CE0107960E94181186E0F801ABEAB1E0BA
:102A600001900D928A95E1F70E94FF130E94F113E5
:102A7000FF24F394D6C04D875E878D859E850E9486
:102A8000BB18292F22952F7030E0223031050CF031
:102A9000BCC09F7009F0B6C0805E883008F4C1C029
:102AA000C8010E941811E4CFC816D90608F453C013
:102AB000F601E81BF90BCF01883C910508F450C0E2
:102AC000F12C7C2DD98AC88A89890E94B113EBEA3E
:102AD000F1E086E0DF011D928A95E9F70E94F1138B
:102AE000A0C0751314C0341312C0611110C08091BE
:102AF000B001F8018583C8010E94181186E0EBEA55
:102B0000F1E0DF011D928A95E9F7FE2C8AC04D871E
:102B10005E878D859E856A8B0E9487136A898823CC
:102B200009F4BECF662309F4BBCF2091B001822FF8
:102B300082958F7090E002970CF48ECF8091AB015C
:102B40009091AC019A8389831B82DD82CC822E8393
:102B5000CE0101967FCF809590958C0D9D1DACCFB9
:102B6000F62E662309F49CCF75132EC034132CC0A7
:102B70002091B00120FD1FC0822F82958F70D9F067
:102B8000D80115962C9315978F3049F08F5F982FA9
:102B90009295907F822F8F70892B15968C93C80108
:102BA0000E94181186E0F801ABEAB1E001900D92A5
:102BB0008A95E1F793CF86E0F801ABEAB1E00190A6
:102BC0000D928A95E1F72DC04D875E878D859E8594
:102BD0000E948713811140CF8091B0018160809362
:102BE000B001C8010E9418111CC0662309F458CF17
:102BF0004D875E878D859E850E948713882309F403
:102C00004FCF2ACF811148CF0CC0243031050CF0B2
:102C100047CF9F7009F440CFF8019581907F09F06C
:102C20003BCF8F2D62960FB6F894DEBF0FBECDBF9F
:102C3000DF91CF911F910F91FF90EF90DF90CF9098
:102C400008951F93CF93DF93CDB7DEB72C970FB6C0
:102C5000F894DEBF0FBECDBF4F83588769877A8750
:102C60008B879C87CE0107960E945A14882369F0AF
:102C70008F8198852A853B85232BF1F19F3F09F0B1
:102C800063C08F3F09F060C037C086E0FE01379611
:102C9000DE01119601900D928A95E1F76F8178859A
:102CA000EA85FB85309741F17F3F11F46F3F21F1B9
:102CB00020917A0130E0C9010196877099274091EF
:102CC000790150E08417950709F447C069837A8336
:102CD000FD83EC8396E0929FD001939FB00D112469
:102CE000A558BE4FFE01319601900D929A95E1F7DD
:102CF00080937A010E94D01316E08091790190911F
:102D00007A018917C1F1189FC001112485589E4F7F
:102D10000E945A14882379F1E09179011E9FF001F5
:102D20001124E558FE4F4081518162817381848175
:102D300095810E94C0138091790190E0019687707F
:102D4000992780937901D9CF4F81588569857A85F4
:102D50008B859C850E94C013CFCF0E948313109255
:102D60007A0110927901EBEAF1E086E0DF011D9231
:102D70008A95E9F7C1CF2C960FB6F894DEBF0FBE47
:102D8000CDBFDF91CF911F910895EF92FF920F93E6
:102D90001F93CF93DF938C01892B09F46CC0F12C26
:102DA000EE24E394E8012196F8018491843740F4FD
:102DB000843008F051C0813081F0823019F15BC05D
:102DC000853709F444C0A8F19CE7980F903708F0C4
:102DD00052C08F770E94BB1041C00E5F1F4FFE0193
:102DE000C49180E28C0F883048F4C7708E2D01C0EA
:102DF000880FCA95EAF70E94A11914C08C2F0E946F
:102E0000F30F2DC00E5F1F4FFE01C49180E28C0FA7
:102E1000883058F4C7708E2D01C0880FCA95EAF724
:102E20000E94A7190E94C8191AC08C2F0E94BB10BB
:102E300016C00E5F1F4FFE01C491CC2381F08FE9B5
:102E40009FE00197F1F700C00000C150F6CF0E5F80
:102E50001F4FFE01F49003C00E94F30F8E018F2DCF
:102E6000882309F49FCFEFE9FFE03197F1F700C025
:102E700000008150F5CFDF91CF911F910F91FF900E
:102E8000EF90089508956093B5017093B601809313
:102E9000B7019093B8010C946F130F931F93009197
:102EA000B5011091B6012091B7013091B801DC0154
:102EB000CB01802B912BA22BB32B8093B501909348
:102EC000B601A093B701B093B8011F910F910C9474
:102ED0006F130F931F930091B5011091B6012091CC
:102EE000B7013091B801DC01CB0180239123A223EB
:102EF000B3238093B5019093B601A093B701B0932B
:102F0000B8011F910F910C946F130F931F930091B1
:102F1000B5011091B6012091B7013091B801DC01E3
:102F2000CB0180279127A227B3278093B5019093E7
:102F3000B601A093B701B093B8011F910F910C9403
:102F40006F131092B1011092B2011092B30110925E
:102F5000B4010C946F1341E050E060E070E004C0F5
:102F6000440F551F661F771F8A95D2F74093B10112
:102F70005093B2016093B3017093B4010C946F133A
:102F800041E050E060E070E004C0440F551F661F50
:102F9000771F8A95D2F78091B1019091B201A091EB
:102FA000B301B091B401482B592B6A2B7B2B409372
:102FB000B1015093B2016093B3017093B4010C94CA
:102FC0006F1341E050E060E070E004C0440F551F13
:102FD000661F771F8A95D2F740955095609570953A
:102FE0008091B1019091B201A091B301B091B4016F
:102FF000482359236A237B234093B1015093B201A4
:103000006093B3017093B4010C946F1341E050E0EE
:1030100060E070E004C0440F551F661F771F8A955B
:10302000D2F78091B1019091B201A091B301B0911A
:10303000B401482759276A277B274093B101509351
:10304000B2016093B3017093B4010C946F130F93AA
:103050001F930091B1011091B2012091B301309101
:10306000B401DC01CB01802B912BA22BB32B8093DD
:10307000B1019093B201A093B301B093B4011F9139
:103080000F910C946F130F931F930091B101109146
:10309000B2012091B3013091B401DC01CB01802356
:1030A0009123A223B3238093B1019093B201A09303
:1030B000B301B093B4011F910F910C946F130F9350
:1030C0001F930091B1011091B2012091B301309191
:1030D000B401DC01CB0180279127A227B32780937D
:1030E000B1019093B201A093B301B093B4011F91C9
:1030F0000F910C946F130895CF92DF92EF92FF928D
:103100000F931F93CF93DF938C01C090B501D090A4
:10311000B601E090B701F090B8018091B1019091B3
:10312000B201A091B301B091B401C82AD92AEA2A08
:10313000FB2ACFE1D0E0D701C6010C2E04C0B69522
:10314000A795979587950A94D2F780FF06C0B80196
:103150008C2F0E942807019721F4219760F780E0C7
:1031600001C08C2FDF91CF911F910F91FF90EF90B5
:10317000DF90CF900895CF93DF93EC010E947C18ED
:10318000BE010E942807DF91CF910895CB010E94D4
:10319000BB1808958091B901859585958595089509
:1031A0008091B9018770089598E0899F900111245A
:1031B000262B2093B9010C94C0172091B90180955A
:1031C00082238093B901982F977069F430E0482FDB
:1031D000552747FD50952417350729F08595859586
:1031E00085950C94E11708959091B901977081E04D
:1031F00009F480E0089590910C01992321F09091B9
:103200000D01911109C020910E0130910F01F901BA
:1032100032969FEF40E01FC0982F96959695969511
:103220009F3050F5E0910E01F0910F01E90FF11D73
:10323000877021E030E0A90102C0440F551F8A9534
:10324000E2F7CA019181892B818308959F3F39F06C
:103250004F5F4E3041F051915813F8CF0DC05111CE
:10326000F7CF942FF5CF9F3F39F0F901E90FF11D0A
:1032700097FDFA9582830895089590910C01992302
:1032800021F090910D01911109C020910E01309112
:103290000F01F9013296205F3F4F1FC0982F96957E
:1032A000969596959F30F0F4E0910E01F0910F0104
:1032B000E90FF11D877021E030E0A90102C0440F41
:1032C000551F8A95E2F7CA018095918189238183F0
:1032D00008953196E217F30729F090819813F9CFFA
:1032E0001082F7CF089581E090E0E0910E01F09117
:1032F0000F01E80FF91F1082019680319105A9F79F
:1033000008959091CD01892B8093CD0108958095EA
:103310009091CD0189238093CD0108951092CD0124
:1033200008959091CC01892B8093CC0108958095CC
:103330009091CC0189238093CC0108951092CC0107
:1033400008959091CB01892B8093CB0108958095AE
:103350009091CB0189238093CB0108951092CB01EA
:1033600008958093BA0108951092BA01089580914A
:103370000E0190910F01FC0131969C01205F3F4F9F
:1033800080E0919191118F5FE217F307D1F70895D3
:10339000E0910E01F0910F018091CD018083E091C9
:1033A0000E01F0910F0190818091CC01892B8083D7
:1033B000E0910E01F0910F0190818091CB01892B5A
:1033C00080838091BA01882361F0E0910E01F09131
:1033D0000F019081892B80830E94B719811110926F
:1033E000BA0180910E0190910F010C94D60ECF92EC
:1033F000DF92EF92FF926C01EE24FF24C114D104FE
:10340000E104F10421F0C701B60120E101C020E090
:10341000C72ED82EE92EFF24C114D104E104F104F3
:1034200019F0285FC701B6016B017C0154E0F694E6
:10343000E794D794C7945A95D1F7C114D104E10405
:10344000F10419F02C5FC701B6016B017C0142E069
:10345000F694E794D794C7944A95D1F7C114D10450
:10346000E104F10419F02E5FC701B601DC01CB01C4
:10347000B695A79597958795892B8A2B8B2B09F065
:103480002F5F822FFF90EF90DF90CF900895809173
:10349000E501843021F11092CF0120E488E190E031
:1034A0000FB6F894A895809360000FBE209360003B
:1034B00080E00E94C30783B7817F846083BF83B7A6
:1034C000816083BF7894889583B78E7F83BF88E1BE
:1034D0000FB6F89480936000109260000FBE0895BC
:1034E00008950895CF930E94701A0E94E2030E94EB
:1034F000711AC0E08C2F0E94D004811104C0CF5FEC
:10350000CE30C1F701C081E0CF9108950E948313AE
:103510000E94CA0E0C94C30782E084BD93E095BD5F
:103520009AEF97BD80936E0008952FB7F89480911D
:10353000D0019091D101A091D201B091D3012FBFC0
:103540000895CF92DF92EF92FF920F931F932FB7C0
:10355000F8944091D0015091D1016091D2017091C5
:10356000D3012FBF6A017B01EE24FF248C0120E0F0
:1035700030E0C016D106E206F30610F441505109BE
:103580009A01281B390BC9011F910F91FF90EF90F1
:10359000DF90CF9008951F920F920FB60F921124D3
:1035A0008F939F93AF93BF938091D0019091D1015E
:1035B000A091D201B091D3010196A11DB11D8093BC
:1035C000D0019093D101A093D201B093D301BF91C8
:1035D000AF919F918F910F900FBE0F901F901895F4
:1035E0000E94C70BF8942FEF87EA91E621508040A4
:1035F0009040E1F700C0000087E090EBDC01809391
:10360000EF019093F001A093F101B093F2019CE0DF
:1036100088E10FB6F894A895809360000FBE909350
:103620006000FFCFEF92FF920F931F93CF93DF9332
:10363000D82FC0E08C2F0E94D00400E010E0E82ECC
:10364000F12CC701002E02C0959587950A94E2F7E8
:1036500080FD06C00F5F1F4F0630110591F709C0AE
:10366000602F7C2F80E00E94D804D813F3CF81E034
:1036700004C0CF5FCE30F1F680E0DF91CF911F9193
:103680000F91FF90EF900895CF93C82F8CE20E9486
:10369000121B882321F08C2FCF910C94121B80E0F9
:1036A000CF910895CF930E94991C811102C00E946E
:1036B0007F1CC5E6C15049F00E94E2038FE39CE9FC
:1036C0000197F1F700C00000F5CF89E20E94441B8A
:1036D000811113C18AE20E94441B81110E947F1C48
:1036E00085E00E94441B81110E94F01A0E94A41CD4
:1036F0008093CE0187E00E94441B8823A9F18BE1CF
:103700000E94441B882351F08091CE0181FB222727
:1037100020F991E0922790FB81F90EC08EE00E9483
:10372000441B882361F08091CE0182FB222720F97F
:1037300091E0922790FB82F98093CE0115C080E141
:103740000E94441B9091CE01882341F093FB2227D5
:1037500020F981E0822780FB93F904C0892F8095AE
:1037600080FB90F99093CE018091CE010E94A81C1D
:103770000E94B61C8093EE0180EE0E94441B8823B9
:1037800041F08091EE01982F909590FB80F9809305
:10379000EE0189E30E94441B882359F08091EE01D9
:1037A00081FB222720F991E0922790FB81F98093F9
:1037B000EE0182EE0E94441B882359F08091EE01B5
:1037C00082FB222720F991E0922790FB82F98093D7
:1037D000EE0186EE0E94441B882359F08091EE0191
:1037E00083FB222720F991E0922790FB83F98093B5
:1037F000EE0183EE0E94441B882359F08091EE0174
:1038000084FB222720F991E0922790FB84F9809392
:10381000EE0185E30E94441B882359F08091EE015C
:1038200085FB222720F991E0922790FB85F9809370
:10383000EE0181E30E94441B882359F08091EE0140
:1038400086FB222720F991E0922790FB86F980934E
:10385000EE0181E10E94441B882359F08091EE0122
:1038600087FB222720F991E0922790FB87F980932C
:10387000EE018091EE010E94BA1C8091EE0187FB5F
:10388000882780F980930D0187E20E94441BC82F8E
:103890008EE10E94441B8111C2608FE10E94441B93
:1038A0008111C46080E20E94441B8111C86081E2E2
:1038B0000E94441B8111C06182E20E94441B81115D
:1038C000C06283E20E94441B8111C06484E20E94B2
:1038D000441B882311F0C06802C0CC2329F08C2F30
:1038E0000E94B11C6C2F03C00E94AD1C682F70E0B9
:1038F00080E090E0CF910C944317CF9108956DEE46
:103900007EEF80E090E00E94EB2260E082E090E0B9
:103910000E94D92260E083E090E00E94D92260E01A
:1039200084E090E00E94D92260E085E090E00C9471
:10393000D92280E090E00E94D32221E08D3E9E4F6C
:1039400009F020E0822F089582E090E00C94CB22D1
:10395000682F82E090E00C94D92283E090E00C94F0
:10396000CB22682F83E090E00C94D92284E090E091
:103970000C94CB22682F84E090E00C94D9228091A3
:10398000D60180FF0BC06091130185E0689FB001F4
:10399000112475956795759567952BC081FF09C0B2
:1039A0006091130185E0689FB001112475956795BA
:1039B00020C082FF07C06091130185E0689FB001BD
:1039C000112417C09091D7019923D1F06091120171
:1039D000961788F72091130185E0289F9001112404
:1039E000929FA001939F500D112470E0CA010E9484
:1039F0009D226038710540F46115710539F002C0EF
:103A000065E070E0862F08958FE7089581E00895BE
:103A10008091D60180FF08C06091110170E075951A
:103A200067957595679521C081FF06C0609111016A
:103A300070E07595679519C082FF04C0609111010F
:103A400070E010C09091D7019923C1F060911001EE
:103A50009617A0F780911101899FC001112470E091
:103A60000E949D226038710528F46115710521F0CE
:103A7000862F08958FE7089581E0089561E070E052
:103A8000F4CF803F21F40E94BF1C819504C0813F88
:103A900029F40E94BF1C8093DA010895823F21F42B
:103AA0000E94BF1C819504C0833F29F40E94BF1C63
:103AB0008093D9010895893F19F40E94081D05C01B
:103AC0008A3F31F40E94081D81958093DB0108959F
:103AD0008B3F21F40E94081D819504C08C3F29F47E
:103AE0000E94081D8093DC010895843F21F4809199
:103AF000D801816017C0853F21F48091D801826090
:103B000011C0863F21F48091D80184600BC0873FAB
:103B100021F48091D801886005C0883F31F48091FC
:103B2000D80180618093D80108958D3F21F4809160
:103B3000D60181600BC08E3F21F48091D601826056
:103B400005C08F3F29F48091D60184608093D6010F
:103B50000895803F39F48091DA0187FF6CC010929C
:103B6000DA0169C0813F29F48091DA011816BCF3AB
:103B700062C09091D901823F29F497FF5CC01092F6
:103B8000D90159C0833F19F41916CCF354C0893FA9
:103B900041F48091DB0118160CF04DC01092DB014E
:103BA0004AC08A3F29F48091DB0187FF44C0F6CFE9
:103BB0008B3F39F48091DC0187FF3DC01092DC011E
:103BC0003AC08C3F29F48091DC011816BCF333C055
:103BD000843F21F48091D8018E7F17C0853F21F466
:103BE0008091D8018D7F11C0863F21F48091D8014A
:103BF0008B7F0BC0873F21F48091D801877F05C060
:103C0000883F31F48091D8018F7E8093D80113C012
:103C10008D3F21F48091D6018E7F0BC08E3F21F421
:103C20008091D6018D7F05C08F3F29F48091D60108
:103C30008B7F8093D6018091D90181110EC0809134
:103C4000DA0181110AC08091DB01811106C08091E7
:103C5000DC01811102C01092D701089588ED91E036
:103C60000E94E10E0E94951A9093D5018093D40191
:103C700008951F93CF93DF938091D4019091D50144
:103C80000E94A11AAC019091D701992321F02091B3
:103C9000140130E006C0209115018AE0289F9001B0
:103CA00011244217530708F486C08091D901C091AE
:103CB000DA01D091DB011091DC01811107C0C11143
:103CC00076C0D11174C0111172C075C09F3F19F038
:103CD0009F5F9093D701181624F40E94BF1C809315
:103CE000D9018091D90187FF05C00E94BF1C819531
:103CF0008093D9011C1624F40E94BF1C8093DA0122
:103D00008091DA0187FF05C00E94BF1C81958093D6
:103D1000DA016091D901662339F1C091DA01CC232F
:103D200019F1772767FD7095872F972F0E94AE2195
:103D300023E333E343E35FE30E9412220E947B21EB
:103D40006093D9016C2F772767FD7095872F972F88
:103D50000E94AE2123E333E343E35FE30E94122298
:103D60000E947B216093DA011D1624F40E94081D35
:103D70008093DB018091DB0187FF05C00E94081D55
:103D800081958093DB01111624F40E94081D809315
:103D9000DC018091DC0187FF05C00E94081D819530
:103DA0008093DC01DF91CF911F910C942E1E9F3FD9
:103DB00009F08ECF96CFDF91CF911F910895E8ED56
:103DC000F1E085E0DF011D928A95E9F71092D701B5
:103DD0001092D6010895833081F128F4813059F092
:103DE0008230D1F00895853009F449C0B8F18630A9
:103DF00009F456C0089580911501262F30E0280F50
:103E0000311D2F3F310524F4680F6093150108958B
:103E10008FEF80931501089580911401262F30E0D3
:103E2000280F311D2F3F310524F4680F60931401D2
:103E300008958FEF80931401089580911301262F28
:103E400030E0280F311D2F3F310524F4680F6093B7
:103E5000130108958FEF809313010895809112014B
:103E6000262F30E0280F311D2F3F310524F4680F35
:103E70006093120108958FEF80931201089580914D
:103E80001101262F30E0280F311D2F3F310524F47A
:103E9000680F6093110108958FEF809311010895C9
:103EA00080911001262F30E0280F311D2F3F310562
:103EB00024F4680F6093100108958FEF8093100130
:103EC0000895833011F128F4813049F0823091F067
:103ED0000895853081F120F18630C1F108958091F7
:103EE0001501681720F4861B809315010895109220
:103EF0001501089580911401681720F4861B8093A2
:103F00001401089510921401089580911301681707
:103F100020F4861B809313010895109213010895D5
:103F200080911201681720F4861B80931201089576
:103F300010921201089580911101681720F4861BD8
:103F4000809311010895109211010895809110013C
:103F5000681720F4861B80931001089510921001B9
:103F600008950F931F938D3109F46BC008F03FC083
:103F70008E3009F47FC0C0F4873009F469C068F45A
:103F8000863009F0B1C08091CE01817F8E7F809311
:103F9000CE0181E08093DE01A8C0883009F4A2C080
:103FA0008B3009F49FC0A0C0863109F49BC078F41F
:103FB000803109F472C0813109F096C00E948313E8
:103FC00090910D0181E0892780930D018BC089318B
:103FD00009F488C08B3109F087C08091CE0181FB44
:103FE000222720F991E0922790FB81F94CC085337C
:103FF00009F470C048F4873209F46CC008F459C061
:10400000893209F467C070C0833438F48A3308F009
:104010004EC0883309F466C067C0833409F45AC0BF
:10402000883409F061C00E9483130FEF13ED20E381
:10403000015010402040E1F700C000000E94F01A3B
:1040400051C00E9435210E94CA0E0E94C3074AC077
:104050009091CE01892F8095817080FB90F929F095
:10406000966098609093CE0140C0997F977F90931F
:10407000CE0138C08091CE0182FB222720F991E049
:10408000922790FB82F98093CE01992359F1809178
:10409000CE0181608093CE0125C08091CE0183FB4B
:1040A000222720F991E0922790FB83F9ECCF8953E6
:1040B00001C08D5141E050E060E070E08A019B0159
:1040C00004C0000F111F221F331F8A95D2F7C901A8
:1040D000B80104C061E070E080E090E00E94431706
:1040E0000E94831381E001C080E01F910F91089529
:1040F00080E0089580E00895CF93C82F8091DE017D
:10410000813079F018F08230E9F187C0E0910E013A
:10411000F0910F018081813169F0823209F07FC016
:1041200009C0E0910E01F0910F018081813111F001
:10413000823261F48C2F0E947820811104C08C2F70
:104140000E94B11F1DC081E090E01AC08C2F0E9418
:104150007A20811114C0C43179F048F4CB3079F061
:10416000C03109F060C082E08093DE0108C0C9322E
:1041700019F0C83321F057C01092DE0154C081E01D
:10418000817053C0C93289F118F5C43171F1A8F4B6
:10419000C73009F046C08AE08093150194E19093FE
:1041A000140193E0909313018093120188E08093AF
:1041B000110188E28093100134C0CE51C63088F5D9
:1041C000EC2FF0E0E65DFE4F80818093DD0129C099
:1041D000CE34E9F020F4CB3421F56AE013C0C135C8
:1041E00079F0C235F1F461E00DC08091DD018823E2
:1041F00019F01092DD0115C081E08093DE0115C039
:1042000061E006C08091DD010E94EB1E0AC06AE0F9
:104210008091DD010E94611F04C01092DE0180E0E8
:1042200004C081E002C080E0ABCFCF910895E1E807
:10423000F0E08081886080838081816080838FB797
:10424000F89493E09093890090ED909388008FBF4D
:104250000895EFE6F0E08081826080830895EFE6C4
:10426000F0E080818D7F80830895EFE6F0E090811B
:1042700082E08927808308951F920F920FB60F92D4
:1042800011242F933F934F935F936F937F938F935B
:104290009F93AF93BF93EF93FF938091DF01909132
:1042A000E00101969093E0018093DF01811103C04A
:1042B00082E00E94C307E091E001E695E695F0E018
:1042C000E85FFB4FE4918091DF018E1303C080E033
:1042D0000E94C307FF91EF91BF91AF919F918F9182
:1042E0007F916F915F914F913F912F910F900FBEF2
:1042F0000F901F90189504D06894B1118DC0089547
:1043000070D088F09F5790F0B92F9927B751A0F03F
:10431000D1F0660F771F881F991F1AF0BA95C9F759
:1043200012C0B13081F077D0B1E0089574C0672F2A
:10433000782F8827B85F39F0B93FCCF38695779509
:104340006795B395D9F73EF49095809570956195F2
:104350007F4F8F4F9F4F0895E89409C097FB3EF41D
:1043600090958095709561957F4F8F4F9F4F9923C2
:10437000A9F0F92F96E9BB279395F6958795779540
:104380006795B795F111F8CFFAF4BB0F11F460FF00
:104390001BC06F5F7F4F8F4F9F4F16C0882311F058
:1043A00096E911C0772321F09EE8872F762F05C06C
:1043B000662371F096E8862F70E060E02AF09A9507
:1043C000660F771F881FDAF7880F9695879597F9FC
:1043D000089557FD9058440F551F59F05F3F71F0F5
:1043E0004795880F97FB991F61F09F3F79F087955C
:1043F0000895121613061406551FF2CF4695F1DFE5
:1044000008C0161617061806991FF1CF8695710574
:10441000610508940895E894BB2766277727CB01A8
:1044200097F908950BD078C069D028F06ED018F0B5
:10443000952309F05AC05FC01124EECFCADFA0F364
:10444000959FD1F3950F50E0551F629FF001729F29
:10445000BB27F00DB11D639FAA27F00DB11DAA1F48
:10446000649F6627B00DA11D661F829F2227B00D95
:10447000A11D621F739FB00DA11D621F839FA00D20
:10448000611D221F749F3327A00D611D231F849F70
:10449000600D211D822F762F6A2F11249F575040C7
:1044A0008AF0E1F088234AF0EE0FFF1FBB1F661F62
:1044B000771F881F91505040A9F79E3F510570F01B
:1044C00014C0AACF5F3FECF3983EDCF38695779556
:1044D0006795B795F795E7959F5FC1F7FE2B880F16
:1044E000911D9695879597F9089597F99F6780E8AC
:1044F00070E060E008959FEF80EC089500240A9436
:104500001616170618060906089500240A941216AE
:104510001306140605060895092E0394000C11F4E1
:10452000882352F0BB0F40F4BF2B11F460FF04C08E
:104530006F5F7F4F8F4F9F4F089597FB072E16F4A5
:10454000009407D077FD09D00E94B72207FC05D060
:104550003EF4909581959F4F0895709561957F4F9A
:104560000895EE0FFF1F0590F491E02D0994AA1B0A
:10457000BB1B51E107C0AA1FBB1FA617B70710F04E
:10458000A61BB70B881F991F5A95A9F78095909580
:10459000BC01CD010895F999FECF92BD81BDF89A75
:1045A000992780B50895A8E1B0E042E050E00C946E
:1045B000F322262FF999FECF92BD81BDF89A01977B
:1045C00000B4021639F01FBA20BD0FB6F894FA9A5B
:1045D000F99A0FBE08950196272F0E94DA220C94B3
:1045E000D922DC01CB01FC01F999FECF06C0F2BD56
:1045F000E1BDF89A319600B40D9241505040B8F7A1
:064600000895F894FFCFBD
:104606002002C50753083008FC07C8070101BB0193
:1046160028080A03140A3F4D3639C9037C034603AA
:104626000D03A002B902D202EB0201020304050641
:044636000708090068
:00000001FF
